{
  "_format": "hh-sol-artifact-1",
  "contractName": "Token",
  "sourceName": "contracts/Token.sol",
  "abi": [
    {
      "inputs": [],
      "stateMutability": "nonpayable",
      "type": "constructor"
    },
    {
      "inputs": [
        {
          "internalType": "address",
          "name": "spender",
          "type": "address"
        },
        {
          "internalType": "uint256",
          "name": "allowance",
          "type": "uint256"
        },
        {
          "internalType": "uint256",
          "name": "needed",
          "type": "uint256"
        }
      ],
      "name": "ERC20InsufficientAllowance",
      "type": "error"
    },
    {
      "inputs": [
        {
          "internalType": "address",
          "name": "sender",
          "type": "address"
        },
        {
          "internalType": "uint256",
          "name": "balance",
          "type": "uint256"
        },
        {
          "internalType": "uint256",
          "name": "needed",
          "type": "uint256"
        }
      ],
      "name": "ERC20InsufficientBalance",
      "type": "error"
    },
    {
      "inputs": [
        {
          "internalType": "address",
          "name": "approver",
          "type": "address"
        }
      ],
      "name": "ERC20InvalidApprover",
      "type": "error"
    },
    {
      "inputs": [
        {
          "internalType": "address",
          "name": "receiver",
          "type": "address"
        }
      ],
      "name": "ERC20InvalidReceiver",
      "type": "error"
    },
    {
      "inputs": [
        {
          "internalType": "address",
          "name": "sender",
          "type": "address"
        }
      ],
      "name": "ERC20InvalidSender",
      "type": "error"
    },
    {
      "inputs": [
        {
          "internalType": "address",
          "name": "spender",
          "type": "address"
        }
      ],
      "name": "ERC20InvalidSpender",
      "type": "error"
    },
    {
      "anonymous": false,
      "inputs": [
        {
          "indexed": true,
          "internalType": "address",
          "name": "owner",
          "type": "address"
        },
        {
          "indexed": true,
          "internalType": "address",
          "name": "spender",
          "type": "address"
        },
        {
          "indexed": false,
          "internalType": "uint256",
          "name": "value",
          "type": "uint256"
        }
      ],
      "name": "Approval",
      "type": "event"
    },
    {
      "anonymous": false,
      "inputs": [
        {
          "indexed": false,
          "internalType": "string",
          "name": "codinome",
          "type": "string"
        },
        {
          "indexed": false,
          "internalType": "uint256",
          "name": "amount",
          "type": "uint256"
        }
      ],
      "name": "RegisteredVote",
      "type": "event"
    },
    {
      "anonymous": false,
      "inputs": [
        {
          "indexed": false,
          "internalType": "string",
          "name": "codinome",
          "type": "string"
        },
        {
          "indexed": false,
          "internalType": "address",
          "name": "codinomeAddress",
          "type": "address"
        },
        {
          "indexed": false,
          "internalType": "uint256",
          "name": "amont",
          "type": "uint256"
        }
      ],
      "name": "TokenGenerated",
      "type": "event"
    },
    {
      "anonymous": false,
      "inputs": [
        {
          "indexed": true,
          "internalType": "address",
          "name": "from",
          "type": "address"
        },
        {
          "indexed": true,
          "internalType": "address",
          "name": "to",
          "type": "address"
        },
        {
          "indexed": false,
          "internalType": "uint256",
          "name": "value",
          "type": "uint256"
        }
      ],
      "name": "Transfer",
      "type": "event"
    },
    {
      "inputs": [
        {
          "internalType": "address",
          "name": "owner",
          "type": "address"
        },
        {
          "internalType": "address",
          "name": "spender",
          "type": "address"
        }
      ],
      "name": "allowance",
      "outputs": [
        {
          "internalType": "uint256",
          "name": "",
          "type": "uint256"
        }
      ],
      "stateMutability": "view",
      "type": "function"
    },
    {
      "inputs": [
        {
          "internalType": "address",
          "name": "spender",
          "type": "address"
        },
        {
          "internalType": "uint256",
          "name": "value",
          "type": "uint256"
        }
      ],
      "name": "approve",
      "outputs": [
        {
          "internalType": "bool",
          "name": "",
          "type": "bool"
        }
      ],
      "stateMutability": "nonpayable",
      "type": "function"
    },
    {
      "inputs": [
        {
          "internalType": "address",
          "name": "account",
          "type": "address"
        }
      ],
      "name": "balanceOf",
      "outputs": [
        {
          "internalType": "uint256",
          "name": "",
          "type": "uint256"
        }
      ],
      "stateMutability": "view",
      "type": "function"
    },
    {
      "inputs": [],
      "name": "decimals",
      "outputs": [
        {
          "internalType": "uint8",
          "name": "",
          "type": "uint8"
        }
      ],
      "stateMutability": "view",
      "type": "function"
    },
    {
      "inputs": [
        {
          "internalType": "string",
          "name": "codinome",
          "type": "string"
        },
        {
          "internalType": "uint256",
          "name": "amount",
          "type": "uint256"
        }
      ],
      "name": "issueToken",
      "outputs": [],
      "stateMutability": "nonpayable",
      "type": "function"
    },
    {
      "inputs": [],
      "name": "name",
      "outputs": [
        {
          "internalType": "string",
          "name": "",
          "type": "string"
        }
      ],
      "stateMutability": "view",
      "type": "function"
    },
    {
      "inputs": [],
      "name": "owner",
      "outputs": [
        {
          "internalType": "address",
          "name": "",
          "type": "address"
        }
      ],
      "stateMutability": "view",
      "type": "function"
    },
    {
      "inputs": [],
      "name": "symbol",
      "outputs": [
        {
          "internalType": "string",
          "name": "",
          "type": "string"
        }
      ],
      "stateMutability": "view",
      "type": "function"
    },
    {
      "inputs": [],
      "name": "totalSupply",
      "outputs": [
        {
          "internalType": "uint256",
          "name": "",
          "type": "uint256"
        }
      ],
      "stateMutability": "view",
      "type": "function"
    },
    {
      "inputs": [
        {
          "internalType": "address",
          "name": "to",
          "type": "address"
        },
        {
          "internalType": "uint256",
          "name": "value",
          "type": "uint256"
        }
      ],
      "name": "transfer",
      "outputs": [
        {
          "internalType": "bool",
          "name": "",
          "type": "bool"
        }
      ],
      "stateMutability": "nonpayable",
      "type": "function"
    },
    {
      "inputs": [
        {
          "internalType": "address",
          "name": "from",
          "type": "address"
        },
        {
          "internalType": "address",
          "name": "to",
          "type": "address"
        },
        {
          "internalType": "uint256",
          "name": "value",
          "type": "uint256"
        }
      ],
      "name": "transferFrom",
      "outputs": [
        {
          "internalType": "bool",
          "name": "",
          "type": "bool"
        }
      ],
      "stateMutability": "nonpayable",
      "type": "function"
    },
    {
      "inputs": [
        {
          "internalType": "string",
          "name": "",
          "type": "string"
        }
      ],
      "name": "user",
      "outputs": [
        {
          "internalType": "address",
          "name": "ad",
          "type": "address"
        }
      ],
      "stateMutability": "view",
      "type": "function"
    },
    {
      "inputs": [
        {
          "internalType": "string",
          "name": "codinome",
          "type": "string"
        },
        {
          "internalType": "uint256",
          "name": "amount",
          "type": "uint256"
        }
      ],
      "name": "vote",
      "outputs": [],
      "stateMutability": "nonpayable",
      "type": "function"
    },
    {
      "inputs": [],
      "name": "votingActive",
      "outputs": [
        {
          "internalType": "bool",
          "name": "",
          "type": "bool"
        }
      ],
      "stateMutability": "view",
      "type": "function"
    },
    {
      "inputs": [],
      "name": "votingOff",
      "outputs": [],
      "stateMutability": "nonpayable",
      "type": "function"
    },
    {
      "inputs": [],
      "name": "votingOn",
      "outputs": [],
      "stateMutability": "nonpayable",
      "type": "function"
    }
  ],
  "bytecode": "0x608060405273502542668af09fa7aea52174b9965a7799343df7600660006101000a81548173ffffffffffffffffffffffffffffffffffffffff021916908373ffffffffffffffffffffffffffffffffffffffff1602179055506040518061024001604052806040518060400160405280600881526020017f73747564656e743100000000000000000000000000000000000000000000000081525081526020016040518060400160405280600881526020017f73747564656e743200000000000000000000000000000000000000000000000081525081526020016040518060400160405280600881526020017f73747564656e743300000000000000000000000000000000000000000000000081525081526020016040518060400160405280600881526020017f73747564656e743400000000000000000000000000000000000000000000000081525081526020016040518060400160405280600881526020017f73747564656e743500000000000000000000000000000000000000000000000081525081526020016040518060400160405280600881526020017f73747564656e743600000000000000000000000000000000000000000000000081525081526020016040518060400160405280600881526020017f73747564656e743700000000000000000000000000000000000000000000000081525081526020016040518060400160405280600881526020017f73747564656e743800000000000000000000000000000000000000000000000081525081526020016040518060400160405280600881526020017f73747564656e743900000000000000000000000000000000000000000000000081525081526020016040518060400160405280600981526020017f73747564656e743130000000000000000000000000000000000000000000000081525081526020016040518060400160405280600981526020017f73747564656e743131000000000000000000000000000000000000000000000081525081526020016040518060400160405280600981526020017f73747564656e743132000000000000000000000000000000000000000000000081525081526020016040518060400160405280600981526020017f73747564656e743133000000000000000000000000000000000000000000000081525081526020016040518060400160405280600981526020017f73747564656e743134000000000000000000000000000000000000000000000081525081526020016040518060400160405280600981526020017f73747564656e743135000000000000000000000000000000000000000000000081525081526020016040518060400160405280600981526020017f73747564656e743136000000000000000000000000000000000000000000000081525081526020016040518060400160405280600981526020017f73747564656e743137000000000000000000000000000000000000000000000081525081526020016040518060400160405280600981526020017f73747564656e743138000000000000000000000000000000000000000000000081525081525060079060126200049b92919062000b50565b50348015620004a957600080fd5b506040518060400160405280600981526020017f7361547572696e677300000000000000000000000000000000000000000000008152506040518060400160405280600281526020017f7374000000000000000000000000000000000000000000000000000000000000815250816003908162000527919062000eaa565b50806004908162000539919062000eaa565b50505033600560016101000a81548173ffffffffffffffffffffffffffffffffffffffff021916908373ffffffffffffffffffffffffffffffffffffffff1602179055506000604051806102400160405280733c44cdddb6a900fa2b585dd299e03d12fa4293bc73ffffffffffffffffffffffffffffffffffffffff1673ffffffffffffffffffffffffffffffffffffffff1681526020017390f79bf6eb2c4f870365e785982e1f101e93b90673ffffffffffffffffffffffffffffffffffffffff1673ffffffffffffffffffffffffffffffffffffffff1681526020017315d34aaf54267db7d7c367839aaf71a00a2c6a6573ffffffffffffffffffffffffffffffffffffffff1673ffffffffffffffffffffffffffffffffffffffff168152602001739965507d1a55bcc2695c58ba16fb37d819b0a4dc73ffffffffffffffffffffffffffffffffffffffff1673ffffffffffffffffffffffffffffffffffffffff16815260200173976ea74026e726554db657fa54763abd0c3a0aa973ffffffffffffffffffffffffffffffffffffffff1673ffffffffffffffffffffffffffffffffffffffff1681526020017314dc79964da2c08b23698b3d3cc7ca32193d995573ffffffffffffffffffffffffffffffffffffffff1673ffffffffffffffffffffffffffffffffffffffff1681526020017323618e81e3f5cdf7f54c3d65f7fbc0abf5b21e8f73ffffffffffffffffffffffffffffffffffffffff1673ffffffffffffffffffffffffffffffffffffffff16815260200173a0ee7a142d267c1f36714e4a8f75612f20a7972073ffffffffffffffffffffffffffffffffffffffff1673ffffffffffffffffffffffffffffffffffffffff16815260200173bcd4042de499d14e55001ccbb24a551f3b95409673ffffffffffffffffffffffffffffffffffffffff1673ffffffffffffffffffffffffffffffffffffffff1681526020017371be63f3384f5fb98995898a86b02fb2426c578873ffffffffffffffffffffffffffffffffffffffff1673ffffffffffffffffffffffffffffffffffffffff16815260200173fabb0ac9d68b0b445fb7357272ff202c5651694a73ffffffffffffffffffffffffffffffffffffffff1673ffffffffffffffffffffffffffffffffffffffff168152602001731cbd3b2770909d4e10f157cabc84c7264073c9ec73ffffffffffffffffffffffffffffffffffffffff1673ffffffffffffffffffffffffffffffffffffffff16815260200173df3e18d64bc6a983f673ab319ccae4f1a57c709773ffffffffffffffffffffffffffffffffffffffff1673ffffffffffffffffffffffffffffffffffffffff16815260200173cd3b766ccdd6ae721141f452c550ca635964ce7173ffffffffffffffffffffffffffffffffffffffff1673ffffffffffffffffffffffffffffffffffffffff168152602001732546bcd3c84621e976d8185a91a922ae77ecec3073ffffffffffffffffffffffffffffffffffffffff1673ffffffffffffffffffffffffffffffffffffffff16815260200173bda5747bfd65f08deb54cb465eb87d40e51b197e73ffffffffffffffffffffffffffffffffffffffff1673ffffffffffffffffffffffffffffffffffffffff16815260200173dd2fd4581271e230360230f9337d5c0430bf44c073ffffffffffffffffffffffffffffffffffffffff1673ffffffffffffffffffffffffffffffffffffffff168152602001738626f6940e2eb28930efb4cef49b2d1f2c9c119973ffffffffffffffffffffffffffffffffffffffff1673ffffffffffffffffffffffffffffffffffffffff16815250905060005b601281101562000b2d5781816012811062000a9a5762000a9962000f91565b5b602002015160196007836012811062000ab85762000ab762000f91565b5b0160405162000ac891906200105a565b908152602001604051809103902060000160006101000a81548173ffffffffffffffffffffffffffffffffffffffff021916908373ffffffffffffffffffffffffffffffffffffffff160217905550808062000b2490620010a2565b91505062000a7a565b506001600560006101000a81548160ff02191690831515021790555050620010ef565b826012810192821562000b90579160200282015b8281111562000b8f57825182908162000b7e919062000eaa565b509160200191906001019062000b64565b5b50905062000b9f919062000ba3565b5090565b5b8082111562000bc7576000818162000bbd919062000bcb565b5060010162000ba4565b5090565b50805462000bd99062000c99565b6000825580601f1062000bed575062000c0e565b601f01602090049060005260206000209081019062000c0d919062000c11565b5b50565b5b8082111562000c2c57600081600090555060010162000c12565b5090565b600081519050919050565b7f4e487b7100000000000000000000000000000000000000000000000000000000600052604160045260246000fd5b7f4e487b7100000000000000000000000000000000000000000000000000000000600052602260045260246000fd5b6000600282049050600182168062000cb257607f821691505b60208210810362000cc85762000cc762000c6a565b5b50919050565b60008190508160005260206000209050919050565b60006020601f8301049050919050565b600082821b905092915050565b60006008830262000d327fffffffffffffffffffffffffffffffffffffffffffffffffffffffffffffffff8262000cf3565b62000d3e868362000cf3565b95508019841693508086168417925050509392505050565b6000819050919050565b6000819050919050565b600062000d8b62000d8562000d7f8462000d56565b62000d60565b62000d56565b9050919050565b6000819050919050565b62000da78362000d6a565b62000dbf62000db68262000d92565b84845462000d00565b825550505050565b600090565b62000dd662000dc7565b62000de381848462000d9c565b505050565b5b8181101562000e0b5762000dff60008262000dcc565b60018101905062000de9565b5050565b601f82111562000e5a5762000e248162000cce565b62000e2f8462000ce3565b8101602085101562000e3f578190505b62000e5762000e4e8562000ce3565b83018262000de8565b50505b505050565b600082821c905092915050565b600062000e7f6000198460080262000e5f565b1980831691505092915050565b600062000e9a838362000e6c565b9150826002028217905092915050565b62000eb58262000c30565b67ffffffffffffffff81111562000ed15762000ed062000c3b565b5b62000edd825462000c99565b62000eea82828562000e0f565b600060209050601f83116001811462000f22576000841562000f0d578287015190505b62000f19858262000e8c565b86555062000f89565b601f19841662000f328662000cce565b60005b8281101562000f5c5784890151825560018201915060208501945060208101905062000f35565b8683101562000f7c578489015162000f78601f89168262000e6c565b8355505b6001600288020188555050505b505050505050565b7f4e487b7100000000000000000000000000000000000000000000000000000000600052603260045260246000fd5b600081905092915050565b6000815462000fda8162000c99565b62000fe6818662000fc0565b945060018216600081146200100457600181146200101a5762001051565b60ff198316865281151582028601935062001051565b620010258562000cce565b60005b83811015620010495781548189015260018201915060208101905062001028565b838801955050505b50505092915050565b600062001068828462000fcb565b915081905092915050565b7f4e487b7100000000000000000000000000000000000000000000000000000000600052601160045260246000fd5b6000620010af8262000d56565b91507fffffffffffffffffffffffffffffffffffffffffffffffffffffffffffffffff8203620010e457620010e362001073565b5b600182019050919050565b611f1580620010ff6000396000f3fe608060405234801561001057600080fd5b50600436106101005760003560e01c806370a0823111610097578063a9059cbb11610066578063a9059cbb14610279578063c683e0f4146102a9578063dd62ed3e146102c5578063f4bf93be146102f557610100565b806370a08231146101f15780638da5cb5b1461022157806395d89b411461023f578063a63858031461025d57610100565b806323b872dd116100d357806323b872dd1461017b578063313ce567146101ab578063408e2727146101c957806360a3ae06146101e757610100565b806306fdde0314610105578063095ea7b31461012357806318160ddd1461015357806320949bb414610171575b600080fd5b61010d610325565b60405161011a9190611557565b60405180910390f35b61013d60048036038101906101389190611621565b6103b7565b60405161014a919061167c565b60405180910390f35b61015b6103da565b60405161016891906116a6565b60405180910390f35b6101796103e4565b005b610195600480360381019061019091906116c1565b6104e9565b6040516101a2919061167c565b60405180910390f35b6101b3610518565b6040516101c09190611730565b60405180910390f35b6101d1610521565b6040516101de919061167c565b60405180910390f35b6101ef610534565b005b61020b6004803603810190610206919061174b565b610639565b60405161021891906116a6565b60405180910390f35b610229610681565b6040516102369190611787565b60405180910390f35b6102476106a7565b6040516102549190611557565b60405180910390f35b610277600480360381019061027291906118d7565b610739565b005b610293600480360381019061028e9190611621565b610bf5565b6040516102a0919061167c565b60405180910390f35b6102c360048036038101906102be91906118d7565b610c18565b005b6102df60048036038101906102da9190611933565b610dcb565b6040516102ec91906116a6565b60405180910390f35b61030f600480360381019061030a9190611973565b610e52565b60405161031c9190611787565b60405180910390f35b606060038054610334906119eb565b80601f0160208091040260200160405190810160405280929190818152602001828054610360906119eb565b80156103ad5780601f10610382576101008083540402835291602001916103ad565b820191906000526020600020905b81548152906001019060200180831161039057829003601f168201915b5050505050905090565b6000806103c2610ea6565b90506103cf818585610eae565b600191505092915050565b6000600254905090565b600560019054906101000a900473ffffffffffffffffffffffffffffffffffffffff1673ffffffffffffffffffffffffffffffffffffffff163373ffffffffffffffffffffffffffffffffffffffff16148061048d5750600660009054906101000a900473ffffffffffffffffffffffffffffffffffffffff1673ffffffffffffffffffffffffffffffffffffffff163373ffffffffffffffffffffffffffffffffffffffff16145b6104cc576040517f08c379a00000000000000000000000000000000000000000000000000000000081526004016104c390611a68565b60405180910390fd5b6001600560006101000a81548160ff021916908315150217905550565b6000806104f4610ea6565b9050610501858285610ec0565b61050c858585610f55565b60019150509392505050565b60006012905090565b600560009054906101000a900460ff1681565b600560019054906101000a900473ffffffffffffffffffffffffffffffffffffffff1673ffffffffffffffffffffffffffffffffffffffff163373ffffffffffffffffffffffffffffffffffffffff1614806105dd5750600660009054906101000a900473ffffffffffffffffffffffffffffffffffffffff1673ffffffffffffffffffffffffffffffffffffffff163373ffffffffffffffffffffffffffffffffffffffff16145b61061c576040517f08c379a000000000000000000000000000000000000000000000000000000000815260040161061390611a68565b60405180910390fd5b6000600560006101000a81548160ff021916908315150217905550565b60008060008373ffffffffffffffffffffffffffffffffffffffff1673ffffffffffffffffffffffffffffffffffffffff168152602001908152602001600020549050919050565b600560019054906101000a900473ffffffffffffffffffffffffffffffffffffffff1681565b6060600480546106b6906119eb565b80601f01602080910402602001604051908101604052809291908181526020018280546106e2906119eb565b801561072f5780601f106107045761010080835404028352916020019161072f565b820191906000526020600020905b81548152906001019060200180831161071257829003601f168201915b5050505050905090565b600560009054906101000a900460ff161515600115151461078f576040517f08c379a000000000000000000000000000000000000000000000000000000000815260040161078690611ad4565b60405180910390fd5b60606019836040516107a19190611b30565b908152602001604051809103902060000160009054906101000a900473ffffffffffffffffffffffffffffffffffffffff1673ffffffffffffffffffffffffffffffffffffffff163373ffffffffffffffffffffffffffffffffffffffff1603610840576040517f08c379a000000000000000000000000000000000000000000000000000000000815260040161083790611b93565b60405180910390fd5b671bc16d674ec8000082111561088b576040517f08c379a000000000000000000000000000000000000000000000000000000000815260040161088290611c25565b60405180910390fd5b60005b60128110156109d3573373ffffffffffffffffffffffffffffffffffffffff166019600783601281106108c4576108c3611c45565b5b016040516108d29190611d0c565b908152602001604051809103902060000160009054906101000a900473ffffffffffffffffffffffffffffffffffffffff1673ffffffffffffffffffffffffffffffffffffffff16036109c0576007816012811061093357610932611c45565b5b01805461093f906119eb565b80601f016020809104026020016040519081016040528092919081815260200182805461096b906119eb565b80156109b85780601f1061098d576101008083540402835291602001916109b8565b820191906000526020600020905b81548152906001019060200180831161099b57829003601f168201915b505050505091505b80806109cb90611d52565b91505061088e565b50600073ffffffffffffffffffffffffffffffffffffffff166019826040516109fc9190611b30565b908152602001604051809103902060010184604051610a1b9190611b30565b908152602001604051809103902060009054906101000a900473ffffffffffffffffffffffffffffffffffffffff1673ffffffffffffffffffffffffffffffffffffffff1614610aa0576040517f08c379a0000000000000000000000000000000000000000000000000000000008152600401610a9790611de6565b60405180910390fd5b601983604051610ab09190611b30565b908152602001604051809103902060000160009054906101000a900473ffffffffffffffffffffffffffffffffffffffff16601982604051610af29190611b30565b908152602001604051809103902060010184604051610b119190611b30565b908152602001604051809103902060006101000a81548173ffffffffffffffffffffffffffffffffffffffff021916908373ffffffffffffffffffffffffffffffffffffffff160217905550610ba8601984604051610b709190611b30565b908152602001604051809103902060000160009054906101000a900473ffffffffffffffffffffffffffffffffffffffff1683611049565b610bb7336404a817c800611049565b7f11f26f1a8a204c766a49f4f48571d3af6a3ee4da1bc07a9b30ae36fa142c32ae8383604051610be8929190611e06565b60405180910390a1505050565b600080610c00610ea6565b9050610c0d818585610f55565b600191505092915050565b600560019054906101000a900473ffffffffffffffffffffffffffffffffffffffff1673ffffffffffffffffffffffffffffffffffffffff163373ffffffffffffffffffffffffffffffffffffffff161480610cc15750600660009054906101000a900473ffffffffffffffffffffffffffffffffffffffff1673ffffffffffffffffffffffffffffffffffffffff163373ffffffffffffffffffffffffffffffffffffffff16145b610d00576040517f08c379a0000000000000000000000000000000000000000000000000000000008152600401610cf790611a68565b60405180910390fd5b610d4b601983604051610d139190611b30565b908152602001604051809103902060000160009054906101000a900473ffffffffffffffffffffffffffffffffffffffff1682611049565b7f462bb0c327a6b701efd869445b9e17df5e37119d1efcbc9f75258c9c2956b83f82601984604051610d7d9190611b30565b908152602001604051809103902060000160009054906101000a900473ffffffffffffffffffffffffffffffffffffffff1683604051610dbf93929190611e36565b60405180910390a15050565b6000600160008473ffffffffffffffffffffffffffffffffffffffff1673ffffffffffffffffffffffffffffffffffffffff16815260200190815260200160002060008373ffffffffffffffffffffffffffffffffffffffff1673ffffffffffffffffffffffffffffffffffffffff16815260200190815260200160002054905092915050565b6019818051602081018201805184825260208301602085012081835280955050505050506000915090508060000160009054906101000a900473ffffffffffffffffffffffffffffffffffffffff16905081565b600033905090565b610ebb83838360016110cb565b505050565b6000610ecc8484610dcb565b90507fffffffffffffffffffffffffffffffffffffffffffffffffffffffffffffffff811015610f4f5781811015610f3f578281836040517ffb8f41b2000000000000000000000000000000000000000000000000000000008152600401610f3693929190611e74565b60405180910390fd5b610f4e848484840360006110cb565b5b50505050565b600073ffffffffffffffffffffffffffffffffffffffff168373ffffffffffffffffffffffffffffffffffffffff1603610fc75760006040517f96c6fd1e000000000000000000000000000000000000000000000000000000008152600401610fbe9190611787565b60405180910390fd5b600073ffffffffffffffffffffffffffffffffffffffff168273ffffffffffffffffffffffffffffffffffffffff16036110395760006040517fec442f050000000000000000000000000000000000000000000000000000000081526004016110309190611787565b60405180910390fd5b6110448383836112a2565b505050565b600073ffffffffffffffffffffffffffffffffffffffff168273ffffffffffffffffffffffffffffffffffffffff16036110bb5760006040517fec442f050000000000000000000000000000000000000000000000000000000081526004016110b29190611787565b60405180910390fd5b6110c7600083836112a2565b5050565b600073ffffffffffffffffffffffffffffffffffffffff168473ffffffffffffffffffffffffffffffffffffffff160361113d5760006040517fe602df050000000000000000000000000000000000000000000000000000000081526004016111349190611787565b60405180910390fd5b600073ffffffffffffffffffffffffffffffffffffffff168373ffffffffffffffffffffffffffffffffffffffff16036111af5760006040517f94280d620000000000000000000000000000000000000000000000000000000081526004016111a69190611787565b60405180910390fd5b81600160008673ffffffffffffffffffffffffffffffffffffffff1673ffffffffffffffffffffffffffffffffffffffff16815260200190815260200160002060008573ffffffffffffffffffffffffffffffffffffffff1673ffffffffffffffffffffffffffffffffffffffff16815260200190815260200160002081905550801561129c578273ffffffffffffffffffffffffffffffffffffffff168473ffffffffffffffffffffffffffffffffffffffff167f8c5be1e5ebec7d5bd14f71427d1e84f3dd0314c0f7b2291e5b200ac8c7c3b9258460405161129391906116a6565b60405180910390a35b50505050565b600073ffffffffffffffffffffffffffffffffffffffff168373ffffffffffffffffffffffffffffffffffffffff16036112f45780600260008282546112e89190611eab565b925050819055506113c7565b60008060008573ffffffffffffffffffffffffffffffffffffffff1673ffffffffffffffffffffffffffffffffffffffff16815260200190815260200160002054905081811015611380578381836040517fe450d38c00000000000000000000000000000000000000000000000000000000815260040161137793929190611e74565b60405180910390fd5b8181036000808673ffffffffffffffffffffffffffffffffffffffff1673ffffffffffffffffffffffffffffffffffffffff16815260200190815260200160002081905550505b600073ffffffffffffffffffffffffffffffffffffffff168273ffffffffffffffffffffffffffffffffffffffff1603611410578060026000828254039250508190555061145d565b806000808473ffffffffffffffffffffffffffffffffffffffff1673ffffffffffffffffffffffffffffffffffffffff168152602001908152602001600020600082825401925050819055505b8173ffffffffffffffffffffffffffffffffffffffff168373ffffffffffffffffffffffffffffffffffffffff167fddf252ad1be2c89b69c2b068fc378daa952ba7f163c4a11628f55a4df523b3ef836040516114ba91906116a6565b60405180910390a3505050565b600081519050919050565b600082825260208201905092915050565b60005b838110156115015780820151818401526020810190506114e6565b60008484015250505050565b6000601f19601f8301169050919050565b6000611529826114c7565b61153381856114d2565b93506115438185602086016114e3565b61154c8161150d565b840191505092915050565b60006020820190508181036000830152611571818461151e565b905092915050565b6000604051905090565b600080fd5b600080fd5b600073ffffffffffffffffffffffffffffffffffffffff82169050919050565b60006115b88261158d565b9050919050565b6115c8816115ad565b81146115d357600080fd5b50565b6000813590506115e5816115bf565b92915050565b6000819050919050565b6115fe816115eb565b811461160957600080fd5b50565b60008135905061161b816115f5565b92915050565b6000806040838503121561163857611637611583565b5b6000611646858286016115d6565b92505060206116578582860161160c565b9150509250929050565b60008115159050919050565b61167681611661565b82525050565b6000602082019050611691600083018461166d565b92915050565b6116a0816115eb565b82525050565b60006020820190506116bb6000830184611697565b92915050565b6000806000606084860312156116da576116d9611583565b5b60006116e8868287016115d6565b93505060206116f9868287016115d6565b925050604061170a8682870161160c565b9150509250925092565b600060ff82169050919050565b61172a81611714565b82525050565b60006020820190506117456000830184611721565b92915050565b60006020828403121561176157611760611583565b5b600061176f848285016115d6565b91505092915050565b611781816115ad565b82525050565b600060208201905061179c6000830184611778565b92915050565b600080fd5b600080fd5b7f4e487b7100000000000000000000000000000000000000000000000000000000600052604160045260246000fd5b6117e48261150d565b810181811067ffffffffffffffff82111715611803576118026117ac565b5b80604052505050565b6000611816611579565b905061182282826117db565b919050565b600067ffffffffffffffff821115611842576118416117ac565b5b61184b8261150d565b9050602081019050919050565b82818337600083830152505050565b600061187a61187584611827565b61180c565b905082815260208101848484011115611896576118956117a7565b5b6118a1848285611858565b509392505050565b600082601f8301126118be576118bd6117a2565b5b81356118ce848260208601611867565b91505092915050565b600080604083850312156118ee576118ed611583565b5b600083013567ffffffffffffffff81111561190c5761190b611588565b5b611918858286016118a9565b92505060206119298582860161160c565b9150509250929050565b6000806040838503121561194a57611949611583565b5b6000611958858286016115d6565b9250506020611969858286016115d6565b9150509250929050565b60006020828403121561198957611988611583565b5b600082013567ffffffffffffffff8111156119a7576119a6611588565b5b6119b3848285016118a9565b91505092915050565b7f4e487b7100000000000000000000000000000000000000000000000000000000600052602260045260246000fd5b60006002820490506001821680611a0357607f821691505b602082108103611a1657611a156119bc565b5b50919050565b7f5573756172696f206e616f206175746f72697a61646f21000000000000000000600082015250565b6000611a526017836114d2565b9150611a5d82611a1c565b602082019050919050565b60006020820190508181036000830152611a8181611a45565b9050919050565b7f566f746163616f206e616f20696e696369616461210000000000000000000000600082015250565b6000611abe6015836114d2565b9150611ac982611a88565b602082019050919050565b60006020820190508181036000830152611aed81611ab1565b9050919050565b600081905092915050565b6000611b0a826114c7565b611b148185611af4565b9350611b248185602086016114e3565b80840191505092915050565b6000611b3c8284611aff565b915081905092915050565b7f4e616f20706f646520766f74617220656d207369206d65736d6f210000000000600082015250565b6000611b7d601b836114d2565b9150611b8882611b47565b602082019050919050565b60006020820190508181036000830152611bac81611b70565b9050919050565b7f4c696d697465206d6178696d6f206465207361547572696e6773206174696e6760008201527f69646f2100000000000000000000000000000000000000000000000000000000602082015250565b6000611c0f6024836114d2565b9150611c1a82611bb3565b604082019050919050565b60006020820190508181036000830152611c3e81611c02565b9050919050565b7f4e487b7100000000000000000000000000000000000000000000000000000000600052603260045260246000fd5b60008190508160005260206000209050919050565b60008154611c96816119eb565b611ca08186611af4565b94506001821660008114611cbb5760018114611cd057611d03565b60ff1983168652811515820286019350611d03565b611cd985611c74565b60005b83811015611cfb57815481890152600182019150602081019050611cdc565b838801955050505b50505092915050565b6000611d188284611c89565b915081905092915050565b7f4e487b7100000000000000000000000000000000000000000000000000000000600052601160045260246000fd5b6000611d5d826115eb565b91507fffffffffffffffffffffffffffffffffffffffffffffffffffffffffffffffff8203611d8f57611d8e611d23565b5b600182019050919050565b7f566f6365206a6120766f746f75206e65737365207573756172696f0000000000600082015250565b6000611dd0601b836114d2565b9150611ddb82611d9a565b602082019050919050565b60006020820190508181036000830152611dff81611dc3565b9050919050565b60006040820190508181036000830152611e20818561151e565b9050611e2f6020830184611697565b9392505050565b60006060820190508181036000830152611e50818661151e565b9050611e5f6020830185611778565b611e6c6040830184611697565b949350505050565b6000606082019050611e896000830186611778565b611e966020830185611697565b611ea36040830184611697565b949350505050565b6000611eb6826115eb565b9150611ec1836115eb565b9250828201905080821115611ed957611ed8611d23565b5b9291505056fea2646970667358221220ebae6c6499c6877cfe0ceca65c2b8c087a1a74d58a2f95aad7959f672f043d1964736f6c63430008140033",
  "linkReferences": {},
  "deployedLinkReferences": {}
}