{
  "_format": "hh-sol-artifact-1",
  "contractName": "Token",
  "sourceName": "contracts/Token.sol",
  "abi": [
    {
      "inputs": [],
      "stateMutability": "nonpayable",
      "type": "constructor"
    },
    {
      "inputs": [
        {
          "internalType": "address",
          "name": "spender",
          "type": "address"
        },
        {
          "internalType": "uint256",
          "name": "allowance",
          "type": "uint256"
        },
        {
          "internalType": "uint256",
          "name": "needed",
          "type": "uint256"
        }
      ],
      "name": "ERC20InsufficientAllowance",
      "type": "error"
    },
    {
      "inputs": [
        {
          "internalType": "address",
          "name": "sender",
          "type": "address"
        },
        {
          "internalType": "uint256",
          "name": "balance",
          "type": "uint256"
        },
        {
          "internalType": "uint256",
          "name": "needed",
          "type": "uint256"
        }
      ],
      "name": "ERC20InsufficientBalance",
      "type": "error"
    },
    {
      "inputs": [
        {
          "internalType": "address",
          "name": "approver",
          "type": "address"
        }
      ],
      "name": "ERC20InvalidApprover",
      "type": "error"
    },
    {
      "inputs": [
        {
          "internalType": "address",
          "name": "receiver",
          "type": "address"
        }
      ],
      "name": "ERC20InvalidReceiver",
      "type": "error"
    },
    {
      "inputs": [
        {
          "internalType": "address",
          "name": "sender",
          "type": "address"
        }
      ],
      "name": "ERC20InvalidSender",
      "type": "error"
    },
    {
      "inputs": [
        {
          "internalType": "address",
          "name": "spender",
          "type": "address"
        }
      ],
      "name": "ERC20InvalidSpender",
      "type": "error"
    },
    {
      "anonymous": false,
      "inputs": [
        {
          "indexed": true,
          "internalType": "address",
          "name": "owner",
          "type": "address"
        },
        {
          "indexed": true,
          "internalType": "address",
          "name": "spender",
          "type": "address"
        },
        {
          "indexed": false,
          "internalType": "uint256",
          "name": "value",
          "type": "uint256"
        }
      ],
      "name": "Approval",
      "type": "event"
    },
    {
      "anonymous": false,
      "inputs": [
        {
          "indexed": false,
          "internalType": "address",
          "name": "msgSender",
          "type": "address"
        },
        {
          "indexed": false,
          "internalType": "address",
          "name": "msgRecevier",
          "type": "address"
        },
        {
          "indexed": false,
          "internalType": "uint256",
          "name": "amount",
          "type": "uint256"
        }
      ],
      "name": "RegisteredVote",
      "type": "event"
    },
    {
      "anonymous": false,
      "inputs": [
        {
          "indexed": false,
          "internalType": "address",
          "name": "msgSender",
          "type": "address"
        },
        {
          "indexed": false,
          "internalType": "address",
          "name": "msgRecevier",
          "type": "address"
        },
        {
          "indexed": false,
          "internalType": "uint256",
          "name": "amount",
          "type": "uint256"
        }
      ],
      "name": "TokenGenerated",
      "type": "event"
    },
    {
      "anonymous": false,
      "inputs": [
        {
          "indexed": true,
          "internalType": "address",
          "name": "from",
          "type": "address"
        },
        {
          "indexed": true,
          "internalType": "address",
          "name": "to",
          "type": "address"
        },
        {
          "indexed": false,
          "internalType": "uint256",
          "name": "value",
          "type": "uint256"
        }
      ],
      "name": "Transfer",
      "type": "event"
    },
    {
      "inputs": [
        {
          "internalType": "address",
          "name": "owner",
          "type": "address"
        },
        {
          "internalType": "address",
          "name": "spender",
          "type": "address"
        }
      ],
      "name": "allowance",
      "outputs": [
        {
          "internalType": "uint256",
          "name": "",
          "type": "uint256"
        }
      ],
      "stateMutability": "view",
      "type": "function"
    },
    {
      "inputs": [
        {
          "internalType": "address",
          "name": "spender",
          "type": "address"
        },
        {
          "internalType": "uint256",
          "name": "value",
          "type": "uint256"
        }
      ],
      "name": "approve",
      "outputs": [
        {
          "internalType": "bool",
          "name": "",
          "type": "bool"
        }
      ],
      "stateMutability": "nonpayable",
      "type": "function"
    },
    {
      "inputs": [
        {
          "internalType": "address",
          "name": "account",
          "type": "address"
        }
      ],
      "name": "balanceOf",
      "outputs": [
        {
          "internalType": "uint256",
          "name": "",
          "type": "uint256"
        }
      ],
      "stateMutability": "view",
      "type": "function"
    },
    {
      "inputs": [],
      "name": "decimals",
      "outputs": [
        {
          "internalType": "uint8",
          "name": "",
          "type": "uint8"
        }
      ],
      "stateMutability": "view",
      "type": "function"
    },
    {
      "inputs": [],
      "name": "getBalances",
      "outputs": [
        {
          "internalType": "string[]",
          "name": "",
          "type": "string[]"
        },
        {
          "internalType": "uint256[]",
          "name": "",
          "type": "uint256[]"
        }
      ],
      "stateMutability": "view",
      "type": "function"
    },
    {
      "inputs": [
        {
          "internalType": "address",
          "name": "addrSender",
          "type": "address"
        }
      ],
      "name": "getUser",
      "outputs": [
        {
          "internalType": "string",
          "name": "",
          "type": "string"
        }
      ],
      "stateMutability": "view",
      "type": "function"
    },
    {
      "inputs": [
        {
          "internalType": "address",
          "name": "codinome_ad",
          "type": "address"
        }
      ],
      "name": "isAdmin",
      "outputs": [
        {
          "internalType": "bool",
          "name": "",
          "type": "bool"
        }
      ],
      "stateMutability": "view",
      "type": "function"
    },
    {
      "inputs": [
        {
          "internalType": "string",
          "name": "codinome",
          "type": "string"
        },
        {
          "internalType": "uint256",
          "name": "amount",
          "type": "uint256"
        }
      ],
      "name": "issueToken",
      "outputs": [],
      "stateMutability": "nonpayable",
      "type": "function"
    },
    {
      "inputs": [],
      "name": "name",
      "outputs": [
        {
          "internalType": "string",
          "name": "",
          "type": "string"
        }
      ],
      "stateMutability": "view",
      "type": "function"
    },
    {
      "inputs": [],
      "name": "owner",
      "outputs": [
        {
          "internalType": "address",
          "name": "",
          "type": "address"
        }
      ],
      "stateMutability": "view",
      "type": "function"
    },
    {
      "inputs": [],
      "name": "symbol",
      "outputs": [
        {
          "internalType": "string",
          "name": "",
          "type": "string"
        }
      ],
      "stateMutability": "view",
      "type": "function"
    },
    {
      "inputs": [],
      "name": "totalSupply",
      "outputs": [
        {
          "internalType": "uint256",
          "name": "",
          "type": "uint256"
        }
      ],
      "stateMutability": "view",
      "type": "function"
    },
    {
      "inputs": [
        {
          "internalType": "address",
          "name": "to",
          "type": "address"
        },
        {
          "internalType": "uint256",
          "name": "value",
          "type": "uint256"
        }
      ],
      "name": "transfer",
      "outputs": [
        {
          "internalType": "bool",
          "name": "",
          "type": "bool"
        }
      ],
      "stateMutability": "nonpayable",
      "type": "function"
    },
    {
      "inputs": [
        {
          "internalType": "address",
          "name": "from",
          "type": "address"
        },
        {
          "internalType": "address",
          "name": "to",
          "type": "address"
        },
        {
          "internalType": "uint256",
          "name": "value",
          "type": "uint256"
        }
      ],
      "name": "transferFrom",
      "outputs": [
        {
          "internalType": "bool",
          "name": "",
          "type": "bool"
        }
      ],
      "stateMutability": "nonpayable",
      "type": "function"
    },
    {
      "inputs": [
        {
          "internalType": "string",
          "name": "",
          "type": "string"
        }
      ],
      "name": "user",
      "outputs": [
        {
          "internalType": "address",
          "name": "ad",
          "type": "address"
        }
      ],
      "stateMutability": "view",
      "type": "function"
    },
    {
      "inputs": [
        {
          "internalType": "string",
          "name": "codinome",
          "type": "string"
        },
        {
          "internalType": "uint256",
          "name": "amount",
          "type": "uint256"
        }
      ],
      "name": "vote",
      "outputs": [],
      "stateMutability": "nonpayable",
      "type": "function"
    },
    {
      "inputs": [],
      "name": "votingActive",
      "outputs": [
        {
          "internalType": "bool",
          "name": "",
          "type": "bool"
        }
      ],
      "stateMutability": "view",
      "type": "function"
    },
    {
      "inputs": [],
      "name": "votingOff",
      "outputs": [],
      "stateMutability": "nonpayable",
      "type": "function"
    },
    {
      "inputs": [],
      "name": "votingOn",
      "outputs": [],
      "stateMutability": "nonpayable",
      "type": "function"
    }
  ],
  "bytecode": "0x608060405273502542668af09fa7aea52174b9965a7799343df7600760006101000a81548173ffffffffffffffffffffffffffffffffffffffff021916908373ffffffffffffffffffffffffffffffffffffffff1602179055506040518061024001604052806040518060400160405280600881526020017f73747564656e743100000000000000000000000000000000000000000000000081525081526020016040518060400160405280600881526020017f73747564656e743200000000000000000000000000000000000000000000000081525081526020016040518060400160405280600881526020017f73747564656e743300000000000000000000000000000000000000000000000081525081526020016040518060400160405280600881526020017f73747564656e743400000000000000000000000000000000000000000000000081525081526020016040518060400160405280600881526020017f73747564656e743500000000000000000000000000000000000000000000000081525081526020016040518060400160405280600881526020017f73747564656e743600000000000000000000000000000000000000000000000081525081526020016040518060400160405280600881526020017f73747564656e743700000000000000000000000000000000000000000000000081525081526020016040518060400160405280600881526020017f73747564656e743800000000000000000000000000000000000000000000000081525081526020016040518060400160405280600881526020017f73747564656e743900000000000000000000000000000000000000000000000081525081526020016040518060400160405280600981526020017f73747564656e743130000000000000000000000000000000000000000000000081525081526020016040518060400160405280600981526020017f73747564656e743131000000000000000000000000000000000000000000000081525081526020016040518060400160405280600981526020017f73747564656e743132000000000000000000000000000000000000000000000081525081526020016040518060400160405280600981526020017f73747564656e743133000000000000000000000000000000000000000000000081525081526020016040518060400160405280600981526020017f73747564656e743134000000000000000000000000000000000000000000000081525081526020016040518060400160405280600981526020017f73747564656e743135000000000000000000000000000000000000000000000081525081526020016040518060400160405280600981526020017f73747564656e743136000000000000000000000000000000000000000000000081525081526020016040518060400160405280600981526020017f73747564656e743137000000000000000000000000000000000000000000000081525081526020016040518060400160405280600981526020017f73747564656e743138000000000000000000000000000000000000000000000081525081525060089060126200049b92919062000b50565b50348015620004a957600080fd5b506040518060400160405280600981526020017f7361547572696e677300000000000000000000000000000000000000000000008152506040518060400160405280600281526020017f7374000000000000000000000000000000000000000000000000000000000000815250816003908162000527919062000eaa565b50806004908162000539919062000eaa565b50505033600660016101000a81548173ffffffffffffffffffffffffffffffffffffffff021916908373ffffffffffffffffffffffffffffffffffffffff1602179055506000604051806102400160405280733c44cdddb6a900fa2b585dd299e03d12fa4293bc73ffffffffffffffffffffffffffffffffffffffff1673ffffffffffffffffffffffffffffffffffffffff1681526020017390f79bf6eb2c4f870365e785982e1f101e93b90673ffffffffffffffffffffffffffffffffffffffff1673ffffffffffffffffffffffffffffffffffffffff1681526020017315d34aaf54267db7d7c367839aaf71a00a2c6a6573ffffffffffffffffffffffffffffffffffffffff1673ffffffffffffffffffffffffffffffffffffffff168152602001739965507d1a55bcc2695c58ba16fb37d819b0a4dc73ffffffffffffffffffffffffffffffffffffffff1673ffffffffffffffffffffffffffffffffffffffff16815260200173976ea74026e726554db657fa54763abd0c3a0aa973ffffffffffffffffffffffffffffffffffffffff1673ffffffffffffffffffffffffffffffffffffffff1681526020017314dc79964da2c08b23698b3d3cc7ca32193d995573ffffffffffffffffffffffffffffffffffffffff1673ffffffffffffffffffffffffffffffffffffffff1681526020017323618e81e3f5cdf7f54c3d65f7fbc0abf5b21e8f73ffffffffffffffffffffffffffffffffffffffff1673ffffffffffffffffffffffffffffffffffffffff16815260200173a0ee7a142d267c1f36714e4a8f75612f20a7972073ffffffffffffffffffffffffffffffffffffffff1673ffffffffffffffffffffffffffffffffffffffff16815260200173bcd4042de499d14e55001ccbb24a551f3b95409673ffffffffffffffffffffffffffffffffffffffff1673ffffffffffffffffffffffffffffffffffffffff1681526020017371be63f3384f5fb98995898a86b02fb2426c578873ffffffffffffffffffffffffffffffffffffffff1673ffffffffffffffffffffffffffffffffffffffff16815260200173fabb0ac9d68b0b445fb7357272ff202c5651694a73ffffffffffffffffffffffffffffffffffffffff1673ffffffffffffffffffffffffffffffffffffffff168152602001731cbd3b2770909d4e10f157cabc84c7264073c9ec73ffffffffffffffffffffffffffffffffffffffff1673ffffffffffffffffffffffffffffffffffffffff16815260200173df3e18d64bc6a983f673ab319ccae4f1a57c709773ffffffffffffffffffffffffffffffffffffffff1673ffffffffffffffffffffffffffffffffffffffff16815260200173cd3b766ccdd6ae721141f452c550ca635964ce7173ffffffffffffffffffffffffffffffffffffffff1673ffffffffffffffffffffffffffffffffffffffff168152602001732546bcd3c84621e976d8185a91a922ae77ecec3073ffffffffffffffffffffffffffffffffffffffff1673ffffffffffffffffffffffffffffffffffffffff16815260200173bda5747bfd65f08deb54cb465eb87d40e51b197e73ffffffffffffffffffffffffffffffffffffffff1673ffffffffffffffffffffffffffffffffffffffff16815260200173dd2fd4581271e230360230f9337d5c0430bf44c073ffffffffffffffffffffffffffffffffffffffff1673ffffffffffffffffffffffffffffffffffffffff168152602001738626f6940e2eb28930efb4cef49b2d1f2c9c119973ffffffffffffffffffffffffffffffffffffffff1673ffffffffffffffffffffffffffffffffffffffff16815250905060005b601281101562000b2d5781816012811062000a9a5762000a9962000f91565b5b602002015160056008836012811062000ab85762000ab762000f91565b5b0160405162000ac891906200105a565b908152602001604051809103902060000160006101000a81548173ffffffffffffffffffffffffffffffffffffffff021916908373ffffffffffffffffffffffffffffffffffffffff160217905550808062000b2490620010a2565b91505062000a7a565b506001600660006101000a81548160ff02191690831515021790555050620010ef565b826012810192821562000b90579160200282015b8281111562000b8f57825182908162000b7e919062000eaa565b509160200191906001019062000b64565b5b50905062000b9f919062000ba3565b5090565b5b8082111562000bc7576000818162000bbd919062000bcb565b5060010162000ba4565b5090565b50805462000bd99062000c99565b6000825580601f1062000bed575062000c0e565b601f01602090049060005260206000209081019062000c0d919062000c11565b5b50565b5b8082111562000c2c57600081600090555060010162000c12565b5090565b600081519050919050565b7f4e487b7100000000000000000000000000000000000000000000000000000000600052604160045260246000fd5b7f4e487b7100000000000000000000000000000000000000000000000000000000600052602260045260246000fd5b6000600282049050600182168062000cb257607f821691505b60208210810362000cc85762000cc762000c6a565b5b50919050565b60008190508160005260206000209050919050565b60006020601f8301049050919050565b600082821b905092915050565b60006008830262000d327fffffffffffffffffffffffffffffffffffffffffffffffffffffffffffffffff8262000cf3565b62000d3e868362000cf3565b95508019841693508086168417925050509392505050565b6000819050919050565b6000819050919050565b600062000d8b62000d8562000d7f8462000d56565b62000d60565b62000d56565b9050919050565b6000819050919050565b62000da78362000d6a565b62000dbf62000db68262000d92565b84845462000d00565b825550505050565b600090565b62000dd662000dc7565b62000de381848462000d9c565b505050565b5b8181101562000e0b5762000dff60008262000dcc565b60018101905062000de9565b5050565b601f82111562000e5a5762000e248162000cce565b62000e2f8462000ce3565b8101602085101562000e3f578190505b62000e5762000e4e8562000ce3565b83018262000de8565b50505b505050565b600082821c905092915050565b600062000e7f6000198460080262000e5f565b1980831691505092915050565b600062000e9a838362000e6c565b9150826002028217905092915050565b62000eb58262000c30565b67ffffffffffffffff81111562000ed15762000ed062000c3b565b5b62000edd825462000c99565b62000eea82828562000e0f565b600060209050601f83116001811462000f22576000841562000f0d578287015190505b62000f19858262000e8c565b86555062000f89565b601f19841662000f328662000cce565b60005b8281101562000f5c5784890151825560018201915060208501945060208101905062000f35565b8683101562000f7c578489015162000f78601f89168262000e6c565b8355505b6001600288020188555050505b505050505050565b7f4e487b7100000000000000000000000000000000000000000000000000000000600052603260045260246000fd5b600081905092915050565b6000815462000fda8162000c99565b62000fe6818662000fc0565b945060018216600081146200100457600181146200101a5762001051565b60ff198316865281151582028601935062001051565b620010258562000cce565b60005b83811015620010495781548189015260018201915060208101905062001028565b838801955050505b50505092915050565b600062001068828462000fcb565b915081905092915050565b7f4e487b7100000000000000000000000000000000000000000000000000000000600052601160045260246000fd5b6000620010af8262000d56565b91507fffffffffffffffffffffffffffffffffffffffffffffffffffffffffffffffff8203620010e457620010e362001073565b5b600182019050919050565b6129d380620010ff6000396000f3fe608060405234801561001057600080fd5b50600436106101205760003560e01c806360a3ae06116100ad578063a638580311610071578063a6385803146102fc578063a9059cbb14610318578063c683e0f414610348578063dd62ed3e14610364578063f4bf93be1461039457610120565b806360a3ae06146102565780636f77926b1461026057806370a08231146102905780638da5cb5b146102c057806395d89b41146102de57610120565b806320949bb4116100f457806320949bb4146101b057806323b872dd146101ba57806324d7806c146101ea578063313ce5671461021a578063408e27271461023857610120565b8062113e081461012557806306fdde0314610144578063095ea7b31461016257806318160ddd14610192575b600080fd5b61012d6103c4565b60405161013b929190611ed7565b60405180910390f35b61014c610608565b6040516101599190611f58565b60405180910390f35b61017c60048036038101906101779190612018565b61069a565b6040516101899190612073565b60405180910390f35b61019a6106bd565b6040516101a7919061209d565b60405180910390f35b6101b86106c7565b005b6101d460048036038101906101cf91906120b8565b6107cc565b6040516101e19190612073565b60405180910390f35b61020460048036038101906101ff919061210b565b6107fb565b6040516102119190612073565b60405180910390f35b6102226109a6565b60405161022f9190612154565b60405180910390f35b6102406109af565b60405161024d9190612073565b60405180910390f35b61025e6109c2565b005b61027a6004803603810190610275919061210b565b610ac7565b6040516102879190611f58565b60405180910390f35b6102aa60048036038101906102a5919061210b565b610c1d565b6040516102b7919061209d565b60405180910390f35b6102c8610c65565b6040516102d5919061217e565b60405180910390f35b6102e6610c8b565b6040516102f39190611f58565b60405180910390f35b610316600480360381019061031191906122ce565b610d1d565b005b610332600480360381019061032d9190612018565b61133b565b60405161033f9190612073565b60405180910390f35b610362600480360381019061035d91906122ce565b61135e565b005b61037e6004803603810190610379919061232a565b6115c1565b60405161038b919061209d565b60405180910390f35b6103ae60048036038101906103a9919061236a565b611648565b6040516103bb919061217e565b60405180910390f35b6060806000601267ffffffffffffffff8111156103e4576103e36121a3565b5b60405190808252806020026020018201604052801561041757816020015b60608152602001906001900390816104025790505b5090506000601267ffffffffffffffff811115610437576104366121a3565b5b6040519080825280602002602001820160405280156104655781602001602082028036833780820191505090505b50905060005b60128110156105fb57600060056008836012811061048c5761048b6123b3565b5b0160405161049a91906124e5565b908152602001604051809103902060000160009054906101000a900473ffffffffffffffffffffffffffffffffffffffff169050600073ffffffffffffffffffffffffffffffffffffffff168173ffffffffffffffffffffffffffffffffffffffff16146105e75760088260128110610516576105156123b3565b5b01805461052290612411565b80601f016020809104026020016040519081016040528092919081815260200182805461054e90612411565b801561059b5780601f106105705761010080835404028352916020019161059b565b820191906000526020600020905b81548152906001019060200180831161057e57829003601f168201915b50505050508483815181106105b3576105b26123b3565b5b60200260200101819052506105c781610c1d565b8383815181106105da576105d96123b3565b5b6020026020010181815250505b5080806105f39061252b565b91505061046b565b5081819350935050509091565b60606003805461061790612411565b80601f016020809104026020016040519081016040528092919081815260200182805461064390612411565b80156106905780601f1061066557610100808354040283529160200191610690565b820191906000526020600020905b81548152906001019060200180831161067357829003601f168201915b5050505050905090565b6000806106a561169c565b90506106b28185856116a4565b600191505092915050565b6000600254905090565b600660019054906101000a900473ffffffffffffffffffffffffffffffffffffffff1673ffffffffffffffffffffffffffffffffffffffff163373ffffffffffffffffffffffffffffffffffffffff1614806107705750600760009054906101000a900473ffffffffffffffffffffffffffffffffffffffff1673ffffffffffffffffffffffffffffffffffffffff163373ffffffffffffffffffffffffffffffffffffffff16145b6107af576040517f08c379a00000000000000000000000000000000000000000000000000000000081526004016107a6906125bf565b60405180910390fd5b6001600660006101000a81548160ff021916908315150217905550565b6000806107d761169c565b90506107e48582856116b6565b6107ef85858561174b565b60019150509392505050565b6000600660019054906101000a900473ffffffffffffffffffffffffffffffffffffffff1673ffffffffffffffffffffffffffffffffffffffff163373ffffffffffffffffffffffffffffffffffffffff1614806108a65750600760009054906101000a900473ffffffffffffffffffffffffffffffffffffffff1673ffffffffffffffffffffffffffffffffffffffff163373ffffffffffffffffffffffffffffffffffffffff16145b6108e5576040517f08c379a00000000000000000000000000000000000000000000000000000000081526004016108dc906125bf565b60405180910390fd5b600660019054906101000a900473ffffffffffffffffffffffffffffffffffffffff1673ffffffffffffffffffffffffffffffffffffffff168273ffffffffffffffffffffffffffffffffffffffff16148061098e5750600760009054906101000a900473ffffffffffffffffffffffffffffffffffffffff1673ffffffffffffffffffffffffffffffffffffffff168273ffffffffffffffffffffffffffffffffffffffff16145b1561099c57600190506109a1565b600090505b919050565b60006012905090565b600660009054906101000a900460ff1681565b600660019054906101000a900473ffffffffffffffffffffffffffffffffffffffff1673ffffffffffffffffffffffffffffffffffffffff163373ffffffffffffffffffffffffffffffffffffffff161480610a6b5750600760009054906101000a900473ffffffffffffffffffffffffffffffffffffffff1673ffffffffffffffffffffffffffffffffffffffff163373ffffffffffffffffffffffffffffffffffffffff16145b610aaa576040517f08c379a0000000000000000000000000000000000000000000000000000000008152600401610aa1906125bf565b60405180910390fd5b6000600660006101000a81548160ff021916908315150217905550565b606060005b6012811015610c16573373ffffffffffffffffffffffffffffffffffffffff16600560088360128110610b0257610b016123b3565b5b01604051610b1091906124e5565b908152602001604051809103902060000160009054906101000a900473ffffffffffffffffffffffffffffffffffffffff1673ffffffffffffffffffffffffffffffffffffffff1603610c035760088160128110610b7157610b706123b3565b5b018054610b7d90612411565b80601f0160208091040260200160405190810160405280929190818152602001828054610ba990612411565b8015610bf65780601f10610bcb57610100808354040283529160200191610bf6565b820191906000526020600020905b815481529060010190602001808311610bd957829003601f168201915b5050505050915050610c18565b8080610c0e9061252b565b915050610acc565b505b919050565b60008060008373ffffffffffffffffffffffffffffffffffffffff1673ffffffffffffffffffffffffffffffffffffffff168152602001908152602001600020549050919050565b600660019054906101000a900473ffffffffffffffffffffffffffffffffffffffff1681565b606060048054610c9a90612411565b80601f0160208091040260200160405190810160405280929190818152602001828054610cc690612411565b8015610d135780601f10610ce857610100808354040283529160200191610d13565b820191906000526020600020905b815481529060010190602001808311610cf657829003601f168201915b5050505050905090565b60011515600660009054906101000a900460ff16151514610d73576040517f08c379a0000000000000000000000000000000000000000000000000000000008152600401610d6a9061262b565b60405180910390fd5b600073ffffffffffffffffffffffffffffffffffffffff163373ffffffffffffffffffffffffffffffffffffffff1603610de2576040517f08c379a0000000000000000000000000000000000000000000000000000000008152600401610dd9906126bd565b60405180910390fd5b671bc16d674ec80000811115610e2d576040517f08c379a0000000000000000000000000000000000000000000000000000000008152600401610e249061274f565b60405180910390fd5b600582604051610e3d91906127a0565b908152602001604051809103902060000160009054906101000a900473ffffffffffffffffffffffffffffffffffffffff1673ffffffffffffffffffffffffffffffffffffffff163373ffffffffffffffffffffffffffffffffffffffff1603610edc576040517f08c379a0000000000000000000000000000000000000000000000000000000008152600401610ed390612803565b60405180910390fd5b600073ffffffffffffffffffffffffffffffffffffffff16600583604051610f0491906127a0565b908152602001604051809103902060000160009054906101000a900473ffffffffffffffffffffffffffffffffffffffff1673ffffffffffffffffffffffffffffffffffffffff1603610f8c576040517f08c379a0000000000000000000000000000000000000000000000000000000008152600401610f839061286f565b60405180910390fd5b606060005b60128110156110d6573373ffffffffffffffffffffffffffffffffffffffff16600560088360128110610fc757610fc66123b3565b5b01604051610fd591906124e5565b908152602001604051809103902060000160009054906101000a900473ffffffffffffffffffffffffffffffffffffffff1673ffffffffffffffffffffffffffffffffffffffff16036110c35760088160128110611036576110356123b3565b5b01805461104290612411565b80601f016020809104026020016040519081016040528092919081815260200182805461106e90612411565b80156110bb5780601f10611090576101008083540402835291602001916110bb565b820191906000526020600020905b81548152906001019060200180831161109e57829003601f168201915b505050505091505b80806110ce9061252b565b915050610f91565b50600073ffffffffffffffffffffffffffffffffffffffff166005826040516110ff91906127a0565b90815260200160405180910390206001018460405161111e91906127a0565b908152602001604051809103902060009054906101000a900473ffffffffffffffffffffffffffffffffffffffff1673ffffffffffffffffffffffffffffffffffffffff16146111a3576040517f08c379a000000000000000000000000000000000000000000000000000000000815260040161119a906128db565b60405180910390fd5b6005836040516111b391906127a0565b908152602001604051809103902060000160009054906101000a900473ffffffffffffffffffffffffffffffffffffffff166005826040516111f591906127a0565b90815260200160405180910390206001018460405161121491906127a0565b908152602001604051809103902060006101000a81548173ffffffffffffffffffffffffffffffffffffffff021916908373ffffffffffffffffffffffffffffffffffffffff1602179055506112ab60058460405161127391906127a0565b908152602001604051809103902060000160009054906101000a900473ffffffffffffffffffffffffffffffffffffffff168361183f565b6112ba336404a817c80061183f565b7f7b6d6a6958a477969edfeb26b91470b3dc15bd0ae9d3fe26467340a94bbbd99b336005856040516112ec91906127a0565b908152602001604051809103902060000160009054906101000a900473ffffffffffffffffffffffffffffffffffffffff168460405161132e939291906128fb565b60405180910390a1505050565b60008061134661169c565b905061135381858561174b565b600191505092915050565b600660019054906101000a900473ffffffffffffffffffffffffffffffffffffffff1673ffffffffffffffffffffffffffffffffffffffff163373ffffffffffffffffffffffffffffffffffffffff1614806114075750600760009054906101000a900473ffffffffffffffffffffffffffffffffffffffff1673ffffffffffffffffffffffffffffffffffffffff163373ffffffffffffffffffffffffffffffffffffffff16145b611446576040517f08c379a000000000000000000000000000000000000000000000000000000000815260040161143d906125bf565b60405180910390fd5b600073ffffffffffffffffffffffffffffffffffffffff1660058360405161146e91906127a0565b908152602001604051809103902060000160009054906101000a900473ffffffffffffffffffffffffffffffffffffffff1673ffffffffffffffffffffffffffffffffffffffff16036114f6576040517f08c379a00000000000000000000000000000000000000000000000000000000081526004016114ed9061286f565b60405180910390fd5b61154160058360405161150991906127a0565b908152602001604051809103902060000160009054906101000a900473ffffffffffffffffffffffffffffffffffffffff168261183f565b7f66ff070a2603a6cbc86eb53e5ffa26ca7a6f0a92d7843755b6deebe3cb6d27a93360058460405161157391906127a0565b908152602001604051809103902060000160009054906101000a900473ffffffffffffffffffffffffffffffffffffffff16836040516115b5939291906128fb565b60405180910390a15050565b6000600160008473ffffffffffffffffffffffffffffffffffffffff1673ffffffffffffffffffffffffffffffffffffffff16815260200190815260200160002060008373ffffffffffffffffffffffffffffffffffffffff1673ffffffffffffffffffffffffffffffffffffffff16815260200190815260200160002054905092915050565b6005818051602081018201805184825260208301602085012081835280955050505050506000915090508060000160009054906101000a900473ffffffffffffffffffffffffffffffffffffffff16905081565b600033905090565b6116b183838360016118c1565b505050565b60006116c284846115c1565b90507fffffffffffffffffffffffffffffffffffffffffffffffffffffffffffffffff8110156117455781811015611735578281836040517ffb8f41b200000000000000000000000000000000000000000000000000000000815260040161172c93929190612932565b60405180910390fd5b611744848484840360006118c1565b5b50505050565b600073ffffffffffffffffffffffffffffffffffffffff168373ffffffffffffffffffffffffffffffffffffffff16036117bd5760006040517f96c6fd1e0000000000000000000000000000000000000000000000000000000081526004016117b4919061217e565b60405180910390fd5b600073ffffffffffffffffffffffffffffffffffffffff168273ffffffffffffffffffffffffffffffffffffffff160361182f5760006040517fec442f05000000000000000000000000000000000000000000000000000000008152600401611826919061217e565b60405180910390fd5b61183a838383611a98565b505050565b600073ffffffffffffffffffffffffffffffffffffffff168273ffffffffffffffffffffffffffffffffffffffff16036118b15760006040517fec442f050000000000000000000000000000000000000000000000000000000081526004016118a8919061217e565b60405180910390fd5b6118bd60008383611a98565b5050565b600073ffffffffffffffffffffffffffffffffffffffff168473ffffffffffffffffffffffffffffffffffffffff16036119335760006040517fe602df0500000000000000000000000000000000000000000000000000000000815260040161192a919061217e565b60405180910390fd5b600073ffffffffffffffffffffffffffffffffffffffff168373ffffffffffffffffffffffffffffffffffffffff16036119a55760006040517f94280d6200000000000000000000000000000000000000000000000000000000815260040161199c919061217e565b60405180910390fd5b81600160008673ffffffffffffffffffffffffffffffffffffffff1673ffffffffffffffffffffffffffffffffffffffff16815260200190815260200160002060008573ffffffffffffffffffffffffffffffffffffffff1673ffffffffffffffffffffffffffffffffffffffff168152602001908152602001600020819055508015611a92578273ffffffffffffffffffffffffffffffffffffffff168473ffffffffffffffffffffffffffffffffffffffff167f8c5be1e5ebec7d5bd14f71427d1e84f3dd0314c0f7b2291e5b200ac8c7c3b92584604051611a89919061209d565b60405180910390a35b50505050565b600073ffffffffffffffffffffffffffffffffffffffff168373ffffffffffffffffffffffffffffffffffffffff1603611aea578060026000828254611ade9190612969565b92505081905550611bbd565b60008060008573ffffffffffffffffffffffffffffffffffffffff1673ffffffffffffffffffffffffffffffffffffffff16815260200190815260200160002054905081811015611b76578381836040517fe450d38c000000000000000000000000000000000000000000000000000000008152600401611b6d93929190612932565b60405180910390fd5b8181036000808673ffffffffffffffffffffffffffffffffffffffff1673ffffffffffffffffffffffffffffffffffffffff16815260200190815260200160002081905550505b600073ffffffffffffffffffffffffffffffffffffffff168273ffffffffffffffffffffffffffffffffffffffff1603611c065780600260008282540392505081905550611c53565b806000808473ffffffffffffffffffffffffffffffffffffffff1673ffffffffffffffffffffffffffffffffffffffff168152602001908152602001600020600082825401925050819055505b8173ffffffffffffffffffffffffffffffffffffffff168373ffffffffffffffffffffffffffffffffffffffff167fddf252ad1be2c89b69c2b068fc378daa952ba7f163c4a11628f55a4df523b3ef83604051611cb0919061209d565b60405180910390a3505050565b600081519050919050565b600082825260208201905092915050565b6000819050602082019050919050565b600081519050919050565b600082825260208201905092915050565b60005b83811015611d23578082015181840152602081019050611d08565b60008484015250505050565b6000601f19601f8301169050919050565b6000611d4b82611ce9565b611d558185611cf4565b9350611d65818560208601611d05565b611d6e81611d2f565b840191505092915050565b6000611d858383611d40565b905092915050565b6000602082019050919050565b6000611da582611cbd565b611daf8185611cc8565b935083602082028501611dc185611cd9565b8060005b85811015611dfd5784840389528151611dde8582611d79565b9450611de983611d8d565b925060208a01995050600181019050611dc5565b50829750879550505050505092915050565b600081519050919050565b600082825260208201905092915050565b6000819050602082019050919050565b6000819050919050565b611e4e81611e3b565b82525050565b6000611e608383611e45565b60208301905092915050565b6000602082019050919050565b6000611e8482611e0f565b611e8e8185611e1a565b9350611e9983611e2b565b8060005b83811015611eca578151611eb18882611e54565b9750611ebc83611e6c565b925050600181019050611e9d565b5085935050505092915050565b60006040820190508181036000830152611ef18185611d9a565b90508181036020830152611f058184611e79565b90509392505050565b600082825260208201905092915050565b6000611f2a82611ce9565b611f348185611f0e565b9350611f44818560208601611d05565b611f4d81611d2f565b840191505092915050565b60006020820190508181036000830152611f728184611f1f565b905092915050565b6000604051905090565b600080fd5b600080fd5b600073ffffffffffffffffffffffffffffffffffffffff82169050919050565b6000611fb982611f8e565b9050919050565b611fc981611fae565b8114611fd457600080fd5b50565b600081359050611fe681611fc0565b92915050565b611ff581611e3b565b811461200057600080fd5b50565b60008135905061201281611fec565b92915050565b6000806040838503121561202f5761202e611f84565b5b600061203d85828601611fd7565b925050602061204e85828601612003565b9150509250929050565b60008115159050919050565b61206d81612058565b82525050565b60006020820190506120886000830184612064565b92915050565b61209781611e3b565b82525050565b60006020820190506120b2600083018461208e565b92915050565b6000806000606084860312156120d1576120d0611f84565b5b60006120df86828701611fd7565b93505060206120f086828701611fd7565b925050604061210186828701612003565b9150509250925092565b60006020828403121561212157612120611f84565b5b600061212f84828501611fd7565b91505092915050565b600060ff82169050919050565b61214e81612138565b82525050565b60006020820190506121696000830184612145565b92915050565b61217881611fae565b82525050565b6000602082019050612193600083018461216f565b92915050565b600080fd5b600080fd5b7f4e487b7100000000000000000000000000000000000000000000000000000000600052604160045260246000fd5b6121db82611d2f565b810181811067ffffffffffffffff821117156121fa576121f96121a3565b5b80604052505050565b600061220d611f7a565b905061221982826121d2565b919050565b600067ffffffffffffffff821115612239576122386121a3565b5b61224282611d2f565b9050602081019050919050565b82818337600083830152505050565b600061227161226c8461221e565b612203565b90508281526020810184848401111561228d5761228c61219e565b5b61229884828561224f565b509392505050565b600082601f8301126122b5576122b4612199565b5b81356122c584826020860161225e565b91505092915050565b600080604083850312156122e5576122e4611f84565b5b600083013567ffffffffffffffff81111561230357612302611f89565b5b61230f858286016122a0565b925050602061232085828601612003565b9150509250929050565b6000806040838503121561234157612340611f84565b5b600061234f85828601611fd7565b925050602061236085828601611fd7565b9150509250929050565b6000602082840312156123805761237f611f84565b5b600082013567ffffffffffffffff81111561239e5761239d611f89565b5b6123aa848285016122a0565b91505092915050565b7f4e487b7100000000000000000000000000000000000000000000000000000000600052603260045260246000fd5b7f4e487b7100000000000000000000000000000000000000000000000000000000600052602260045260246000fd5b6000600282049050600182168061242957607f821691505b60208210810361243c5761243b6123e2565b5b50919050565b600081905092915050565b60008190508160005260206000209050919050565b6000815461246f81612411565b6124798186612442565b9450600182166000811461249457600181146124a9576124dc565b60ff19831686528115158202860193506124dc565b6124b28561244d565b60005b838110156124d4578154818901526001820191506020810190506124b5565b838801955050505b50505092915050565b60006124f18284612462565b915081905092915050565b7f4e487b7100000000000000000000000000000000000000000000000000000000600052601160045260246000fd5b600061253682611e3b565b91507fffffffffffffffffffffffffffffffffffffffffffffffffffffffffffffffff8203612568576125676124fc565b5b600182019050919050565b7f5573756172696f206e616f206175746f72697a61646f21000000000000000000600082015250565b60006125a9601783611f0e565b91506125b482612573565b602082019050919050565b600060208201905081810360008301526125d88161259c565b9050919050565b7f566f746163616f206e616f20696e696369616461210000000000000000000000600082015250565b6000612615601583611f0e565b9150612620826125df565b602082019050919050565b6000602082019050818103600083015261264481612608565b9050919050565b7f41636573736f206e656761646f3a205573756172696f206e616f206175746f7260008201527f697a61646f210000000000000000000000000000000000000000000000000000602082015250565b60006126a7602683611f0e565b91506126b28261264b565b604082019050919050565b600060208201905081810360008301526126d68161269a565b9050919050565b7f4c696d697465206d6178696d6f206465207361547572696e6773206174696e6760008201527f69646f2100000000000000000000000000000000000000000000000000000000602082015250565b6000612739602483611f0e565b9150612744826126dd565b604082019050919050565b600060208201905081810360008301526127688161272c565b9050919050565b600061277a82611ce9565b6127848185612442565b9350612794818560208601611d05565b80840191505092915050565b60006127ac828461276f565b915081905092915050565b7f4e616f20706f646520766f74617220656d207369206d65736d6f210000000000600082015250565b60006127ed601b83611f0e565b91506127f8826127b7565b602082019050919050565b6000602082019050818103600083015261281c816127e0565b9050919050565b7f5573756172696f206e616f20656e636f6e747261646f21000000000000000000600082015250565b6000612859601783611f0e565b915061286482612823565b602082019050919050565b600060208201905081810360008301526128888161284c565b9050919050565b7f566f6365206a6120766f746f75206e65737365207573756172696f0000000000600082015250565b60006128c5601b83611f0e565b91506128d08261288f565b602082019050919050565b600060208201905081810360008301526128f4816128b8565b9050919050565b6000606082019050612910600083018661216f565b61291d602083018561216f565b61292a604083018461208e565b949350505050565b6000606082019050612947600083018661216f565b612954602083018561208e565b612961604083018461208e565b949350505050565b600061297482611e3b565b915061297f83611e3b565b9250828201905080821115612997576129966124fc565b5b9291505056fea26469706673582212208dba475c4e896d2526d7a9b176a507aca264e519375d9b0a27b71499baca5a4764736f6c63430008140033",
  "linkReferences": {},
  "deployedLinkReferences": {}
}